:020000001D28B9
:100008007E14803120007F08F100911E19282300FA
:100018001908F00070082000B2003203031D1828E8
:100028000130A4000030A50091127108FF007E1075
:1000380009001E28FA01FB012030840000308500E9
:1000480013305E217E10200029287A302100990083
:10005800073023008C000F3021008C0090309E0068
:1000680001309D000D302000B600B60B3928220063
:100078009D171D15243023009E0090309D001930D7
:100088009B0020009112210091160B178B1720005E
:100098008C01200024032504031D4D28A401A5017B
:1000A800013021009D000D302000B600B60B5A2803
:1000B800272173082000A7007208A6000530210038
:1000C8009D000D302000B600B60B68282721730864
:1000D8002000A9007208A800093021009D000D30F9
:1000E8002000B600B60B7628272173082000AB0045
:1000F8007208AA000F30F2000030F3000430F40058
:100108000030F5007A30F2207A304A210030F200CF
:10011800F30020002D08F5002C08F4007A30F220B6
:100128007A304A210130F2000030F30020002B0819
:10013800F5002A08F4007A30F2207A304A21023099
:10014800F2000030F30020002908F5002808F40028
:100158007A30F2207A304A210330F2000030F3007E
:1001680020002108F5002008F4007A30F2207A30C7
:100178004A210430F2000030F30020002708F5007F
:100188002608F4007A30F2207A304A210530F2004D
:100198000030F30020002308F5002208F4007A302C
:1001A800F2207A304A210630F2000030F3002000B5
:1001B8003108F5003008F4007A30F2207A304A210C
:1001C8000730F2000030F30020002F08F5002E0859
:1001D800F4007A30F2207A304A214D282000B50008
:1001E8007508F7007408F6000730F736F60C890B27
:1001F800F92876080739F8007808B30074087F39B9
:10020800F6007608B4007208F6000230F635FF3EB4
:10021800031D0A29763533048038F700350886002F
:100228008701770881000130F6007608B5073408A1
:10023800F600350886008701760881000130F6004F
:100248007608B507080021009D149D1829291C0867
:10025800F400F50174082000B3007508B40021000B
:100268001B08F400F50120003308F700F6017408B4
:100278007604F80075087704F9007808B30079085F
:10028800B4003408F3003308F2000800F20020003C
:10029800111E4B29720886008701010823009A0065
:1002A8002000111E5429720886008701413F23004F
:1002B8009A000800640080010131890B5F2900342D
:020000040001F9
:04000E0084CFFFDAC2
:00000001FF
