:020000001D28B9
:100008007E14803120007F08F100911E19282300FA
:100018001908F00070082000B2003203031D1828E8
:100028000130A4000030A50091127108FF007E1075
:1000380009001E28FA01FB012030840000308500E9
:100048001330A6217E10200029287A30210099003B
:10005800173023008C003F3021008C00073023002C
:100068008E00073021008E0090309E0001309D00E8
:100078000D302000B600B60B3F2822009D131D113D
:10008800243023009E0090309D0019309B002000F2
:100098009112210091160B178B1720008C018E01ED
:1000A800200024032504031D5428A401A5010130C0
:1000B80021009D000D302000B600B60B61286F218D
:1000C80073082000A7007208A600053021009D00D3
:1000D8000D302000B600B60B6F286F217308200082
:1000E800A9007208A800093021009D000D302000E9
:1000F800B600B60B7D286F2173082000AB0072088C
:10010800AA00113021009D000D302000B600B60B6A
:100118008B286F2173082000AD007208AC001530E1
:1001280021009D000D302000B600B60B99286F21E4
:1001380073082000AF007208AE00193021009D003E
:100148000D302000B600B60BA7286F2173082000D9
:10015800A3007208A2000D3021009D000D30200080
:10016800B600B60BB5286F2173082000B1007208DD
:10017800B0008C1EC428FF30A0000330A100C628A0
:10018800A001A1010F30F2000030F3000430F400A8
:100198000030F5007A303A217A3092210030F200AE
:1001A800F30020002D08F5002C08F4007A303A21DD
:1001B8007A3092210130F2000030F30020002B0841
:1001C800F5002A08F4007A303A217A309221023078
:1001D800F2000030F30020002908F5002808F40098
:1001E8007A303A217A3092210330F2000030F3005D
:1001F80020002108F5002008F4007A303A217A30EE
:1002080092210430F2000030F30020002708F500A6
:100218002608F4007A303A217A3092210530F2002B
:100228000030F30020002308F5002208F4007A309B
:100238003A217A3092210630F2000030F300200093
:100248003108F5003008F4007A303A217A309221EA
:100258000730F2000030F30020002F08F5002E08C8
:10026800F4007A303A217A30922154282000B500DF
:100278007508F7007408F6000730F736F60C890B96
:10028800412976080739F8007808B30074087F39DF
:10029800F6007608B4007208F6000230F635FF3E24
:1002A800031D5229763533048038F7003508860057
:1002B8008701770881000130F6007608B507340811
:1002C800F600350886008701760881000130F600BF
:1002D8007608B507080021009D149D1871291C088F
:1002E800F400F50174082000B3007508B40021007B
:1002F8001B08F400F50120003308F700F601740824
:100308007604F80075087704F9007808B3007908CE
:10031800B4003408F3003308F2000800F2002000AB
:10032800111E9329720886008701010823009A008C
:100338002000111E9C29720886008701413F230076
:100348009A000800640080010131890BA729003454
:020000040001F9
:04000E0084CFFFDAC2
:00000001FF
